:100000000C9496010C94B3010C94B3010C94B301BD
:100010000C94B3010C94B3010C94B3010C94A90299
:100020000C94B3010C94B3010C94B3010C94B30180
:100030000C94B3010C94B3010C94B3010C94B30170
:100040000C94B3010C94B3010C94B3010C94B30160
:100050000C94B3013C68313E323030204F4B3C2F82
:1000600068313E002F66726F6D6465766963652F37
:1000700067657469702E7068703F706173733D3787
:10008000733664372664693D3046302D3030302D6C
:100090004630462D3030302D304630266F72647039
:1000A0003D713739747933386A636C6435796762C6
:1000B00068676B6C37396C003139322E3136382E27
:1000C000312E39000A3C2F7072653E3C62723E3C14
:1000D00068723E000A636865636B20726573756CB5
:1000E000743A203C6120687265663D687474703AA9
:1000F0002F2F74757867726170686963732E6F72E1
:10010000672F6367692D62696E2F75706C643E6836
:100110007474703A2F2F74757867726170686963B0
:10012000732E6F72672F6367692D62696E2F75700A
:100130006C643C2F613E000A436C69656E742073E9
:10014000746172743A20000A4E756D626572207394
:1001500075636365737366756C2064617461207583
:10016000706C6F61647320746F207765623A200051
:100170004E756D626572206F6620646174612075D2
:10018000706C6F6164732073746172746564206253
:10019000792070696E673A20002028303D6E6F200C
:1001A0006572726F72290A004572726F7220636FF6
:1001B00064653A200077616974696E6720666F72C2
:1001C00020444E5320616E737765722E0A002074AE
:1001D0006F20616E73776572206172702E0A0077EE
:1001E000616974696E6720666F7220475720003C12
:1001F00068323E77656220636C69656E7420737443
:10020000617475733C2F68323E0A3C7072653E0A19
:1002100000485454502F312E3020323030204F4B74
:100220000D0A436F6E74656E742D547970653A20B3
:10023000746578742F68746D6C0D0A507261676D07
:10024000613A206E6F2D63616368650D0A0D0A00C7
:100250000D0A436F6E74656E742D547970653A2083
:100260006170706C69636174696F6E2F782D777738
:10027000772D666F726D2D75726C656E636F646538
:10028000640D0A0D0A00436F6E74656E742D4C6523
:100290006E6774683A20000D0A557365722D4167C8
:1002A000656E743A207467722F312E310D0A4163E6
:1002B000636570743A202A2F2A0D0A000D0A002067
:1002C000485454502F312E310D0A486F73743A2020
:1002D00000504F535420000D0A557365722D41672D
:1002E000656E743A207467722F312E310D0A4163A6
:1002F000636570743A20746578742F68746D6C0D42
:100300000A0D0A0020485454502F312E310D0A484E
:100310006F73743A2000474554200000010800061E
:1003200004000145000082000040002011241FBE8F
:10033000CFE5D8E0DEBFCDBF10E0A0E6B0E0E4EE50
:10034000F1E202C005900D92A83CB107D9F723E075
:10035000A8ECB0E001C01D92A03CB207E1F70E94FA
:10036000C5020C94F0100C9400002091CE002111D5
:100370000CC021E02093CE00FC01AFECB0E004966D
:1003800021912D93E817F907D9F70895883C910535
:1003900029F48091CC008F5F8093CC000895613068
:1003A00051F4FA01A7E7B3E04A5F5F4F81918D9363
:1003B000E417F507D9F7089541E152E060E070E0F5
:1003C00083ED90E00E94D1090895CF92DF92EF92E1
:1003D000FF920F931F93CF93DF93CDB7DEB7619753
:1003E0000FB6F894DEBF0FBECDBF7C010E94DC01CA
:1003F0004FEE51E0BC01C7010E94D109BC019091B0
:10040000C8009130E9F44FED51E0C7010E94D109D5
:100410006C010AE02EE244E060E670E0CE01019655
:100420000E942710AE014F5F5F4FB601C7010E94C7
:10043000FD094EEC51E0BC01C7010E94D1097AC010
:100440008091C900813031F545EB51E0C7010E9430
:10045000D1098C010E942C04D82E48EA51E0B80141
:10046000C7010E94D1098C014AE0BE016F5F7F4F36
:100470008D2D90E00E94BB10AE014F5F5F4FB80121
:10048000C7010E94FD0949E951E0BC01C7010E9472
:10049000D10950C040E751E0C7010E94D1098C0149
:1004A0008091CD004AE0BE016F5F7F4F90E00E94D7
:1004B000BB10AE014F5F5F4FB801C7010E94FD093D
:1004C00047E451E0BC01C7010E94D1098C01809131
:1004D000CC004AE0BE016F5F7F4F90E00E94BB10EE
:1004E000AE014F5F5F4FB801C7010E94FD0947E3AE
:1004F00051E0BC01C7010E94D1098C018091CE005E
:100500004AE0BE016F5F7F4F90E00E94BB10AE01DA
:100510004F5F5F4FB801C7010E94FD0944ED50E0F5
:10052000BC01C7010E94D10944EC50E0BC01C701E5
:100530000E94D10961960FB6F894DEBF0FBECDBF01
:10054000DF91CF911F910F91FF90EF90DF90CF90AF
:1005500008951F920F920FB60F9211248F938091DE
:10056000CA008F5F8093CA008091CA00833338F03D
:100570001092CA008091CB008F5F8093CB008F9147
:100580000F900FBE0F901F901895CF93DF93CDB7AC
:10059000DEB764970FB6F894DEBF0FBECDBF8FEF06
:1005A0008ABB10E0812F8A95F1F788E690E00E94DF
:1005B0000F0682E00E9409061A95F1F7789466E723
:1005C00074E084E10E94EC05B99A64E670E088E684
:1005D00090E00E942D0B80E590E00E94420B85EB9D
:1005E00091E00E94B10D6894CC24C1F8DD24D3942D
:1005F00063ED70E08AE892E00E9404078C01BC0180
:1006000083ED90E00E94B60D7C010115110509F003
:100610007EC08091C800811109C04FEC51E06D2D62
:1006200080E690E00E94940CD092C8000E948D0C4D
:1006300081110BC08091C800813039F4C092C8008C
:100640008091C900882349F019C08091C9008111A7
:1006500015C08091C800823009F50E94B406882335
:1006600039F21092CB00D092C90047E753E068E717
:1006700070E083ED90E00E943A04BACF813051F4EB
:100680000E942904882331F0C092C90083E793E0D7
:100690000E942F048091C900823041F08091CB00EC
:1006A000823008F4A5CF1092C900A2CF8091CE006D
:1006B000813051F51092CB00C092CE008091CD00D8
:1006C0008F5F8093CD000AE02EE244E06FEC70E093
:1006D000CE0101960E9427106EE573E0CE010196CF
:1006E0000E94F90F0F2EF7E7EF2EF3E0FF2EF02D0B
:1006F00003E713E026EC31E048EB50E06EE573E0F1
:1007000084E690E00E946D0D1092CE0071CF0097AC
:1007100031F4B80183ED90E00E94BF0469CF44E05A
:1007200050E0BC016D527F4F84E890E00E94A2101F
:10073000892B59F00E94DC0144E550E0BC0183EDB7
:1007400090E00E94D1097C017EC042E050E0B701F8
:1007500069527F4F89E890E00E94A210892B41F4F2
:100760000E94DC0183ED90E00E94E5017C016BC0FA
:100770004AE050E0B70168527F4F8CE890E00E9459
:10078000A210892B09F05FC087010D511F4F49E06E
:1007900050E0B80187E990E00E94A210892B71F423
:1007A00047E050E0B70163517F4F81EA90E00E943B
:1007B000A210892B11F4D89801C0D89A49E050E0D2
:1007C000B80189EA90E00E94A210892B71F447E0F9
:1007D00050E0B70163517F4F81EA90E00E94A21080
:1007E000892B11F4D99801C0D99A49E050E0B80199
:1007F00083EB90E00E94A210892B71F447E050E057
:10080000B70163517F4F81EA90E00E94A210892BCB
:1008100011F4DA9801C0DA9A49E050E0B8018DEBA2
:1008200090E00E94A210892B71F447E050E0B701DC
:1008300063517F4F81EA90E00E94A210892B11F44E
:10084000DB9801C0DB9AB70183ED90E00E94800B3A
:10085000CFCE80918203089580917D030895EEE7C5
:10086000F3E0DC0122E833E081918D93E217F30796
:10087000D9F70895EF92FF920F931F93CF93DF93D1
:10088000EC017B018A01109282030E94B40681115F
:1008900005C084E080937D0381E06AC010927D03EF
:1008A000609183036F5F6093830370E0706E25E354
:1008B00030E04EE650E0CE010E94A60B809183030B
:1008C0008BA781E08CA7FE01BD96CE01C696119242
:1008D000E817F907E1F781E08FA7F70190819923E5
:1008E000C9F02CE06DE030E09E3241F4DE01A20F51
:1008F000B11D81509A968C93262F832F9191DE0102
:10090000A60FB11D9A969C938F5F6F5F9081911196
:10091000EBCF03C081E02CE06DE0FE01E20FF11DA2
:10092000815082A7FE01E60FF11D12A681E0860F1D
:10093000FE01E80FF11D12A682E0860FFE01E80F0E
:10094000F11D81E082A793E0960FFE01E90FF11DF2
:1009500012A694E0960FFE01E90FF11D82A789EF20
:10096000860F8AA76B5F70E0CE010E940C0C80E0BE
:10097000DF91CF911F910F91FF90EF900895FC01AF
:100980006634710508F471C083A1853309F06FC026
:1009900084A1803E09F06DC085A1909183038913E5
:1009A0006AC093A5891369C085A58F78803829F01E
:1009B00081E080937D0380E0089592A5945F615368
:1009C0007109DF01A90FB11D9A968C91807C61F0AD
:1009D0009E5F0FC09F5FDF01A90FB11D9A968C919A
:1009E000811102C09F5F05C0292F30E0261737070D
:1009F00088F3292F30E0DF01A20FB31F9B968C9163
:100A0000813099F088E0890FDF01A80FB11D9B9616
:100A10008C91965F980F292F30E02617370788F2C0
:100A200083E080937D0380E00895DF01A20FB31F70
:100A3000D3962C91243029F082E080937D0380E0CE
:100A400008952AE0290F30E0265D3F4FE20FF31FA3
:100A5000AEE7B3E022E833E091919D93A217B3078C
:100A6000D9F791E090938203089580E0089580E0A3
:100A7000089580E0089580E0089580E00895C29888
:100A8000962F6F71862B8FB9779BFECF1FB8779B00
:100A9000FECF99231CF41FB8779BFECFC29A8FB16B
:100AA0000895C2986F71862B8FB9779BFECF4FB98F
:100AB000779BFECFC29A0895FB01C2982AE32FB913
:100AC000779BFECF009761F0DF01A80FB91F1FB819
:100AD000779BFECF9FB19193EA17FB07C1F701C047
:100AE000DF011C92C29A0895FB01C2982AE72FB930
:100AF000779BFECF08C09F01280F391F91919FB9A6
:100B0000779BFECF03C00097B1F703C0E217F3074E
:100B1000A9F7C29A08951F93CF93DF93182F1076E9
:100B2000C12FD0E02091860330E0C217D307B1F087
:100B300043E06FE180EA0E945105AE01559547956B
:100B4000559547955595479555954795559547958D
:100B50006FE180E80E94510510938603DF91CF91E9
:100B60001F910895CF93C82F0E948B056C2F80E0B2
:100B70000E943F05CF910895CF93DF93C82FD62FC2
:100B80000E948B054D2F6C2F80E40E945105DF9150
:100B9000CF910895CF93682F84ED0E94BC0561E04A
:100BA00082ED0E94BC058AEE0E94B20580FDFBCF5B
:100BB00060E082ED0E94BC0589ED0E94B205C82F5D
:100BC00088ED0E94B2052C2F30E0322F2227A90198
:100BD000482BCA01CF910895CF93DF93D62FC72F0B
:100BE000682F84ED0E94BC056D2F86ED0E94BC0528
:100BF0006C2F87ED0E94BC05C8E203C08C2F8A953C
:100C0000F1F78AEE0E94B20580FDF8CFDF91CF9117
:100C10000895682F677085E70E94BC050895CF93FB
:100C2000DF93EC01BA9AC29A87B3806A87BBBE98F9
:100C3000C598C79880E58DB9709A4FEF60E08FEF47
:100C40000E94510580E090E00197F1F71092850332
:100C50001092840360E088E00E94BC0560E089E0B7
:100C60000E94BC0560E08CE00E94BC0560E08DE065
:100C70000E94BC056FEF8AE00E94BC0569E18BE031
:100C80000E94BC0560E084E00E94BC056AE185E04A
:100C90000E94BC056FEF86E00E94BC056FE187E013
:100CA0000E94BC0560EB88E30E94BC056FE388E20C
:100CB0000E94BC0560E389E20E94BC0569EF80E305
:100CC0000E94BC0567EF81E30E94BC056DE080ECEB
:100CD0000E94BC0560E081EC0E94BC0542E362EC2E
:100CE00080E80E94510562E186EC0E94BC056CE040
:100CF00087EC0E94BC0562E184EC0E94BC056CEDAF
:100D00008AEC0E94BC0565E08BEC0E94BC05688102
:100D100084EE0E94BC05698185EE0E94BC056A8153
:100D200082EE0E94BC056B8183EE0E94BC056C8143
:100D300080EE0E94BC056D8181EE0E94BC0560E0E2
:100D400071E080E10E94EC058FE10E948B0540EC90
:100D50006BE180E80E94510544E06FE180E80E9469
:100D60005105DF91CF91089581E10E94CA0592FB60
:100D7000882780F908950F931F93CF93DF93EC0199
:100D80008B016FE180E00E943F0583FDFACF8CE18B
:100D90000E94B20581FF13C040E86FE180E80E9425
:100DA000510540E86FE180EA0E94510542E06CE1A4
:100DB00080EA0E94510580E395E70197F1F760E032
:100DC00082E00E94BC056AE183E00E94BC056C2FB2
:100DD00086E00E94BC05CE01965E692F87E00E94E6
:100DE000BC0540E060E08AE70E945105B801CE01F1
:100DF0000E94740548E06FE180E80E945105DF9190
:100E0000CF911F910F910895AF92BF92CF92DF9231
:100E1000EF92FF920F931F93CF93DF936C017B01AF
:100E200089E30E94B205882309F464C060918403B9
:100E3000C091850380E00E94BC056C2F81E00E9478
:100E4000BC0560E08AE30E943F05C82F60E08AE3AA
:100E50000E943F05D0E0D82BD0938503C093840334
:100E600060E08AE30E943F05B82E60E08AE30E94BA
:100E70003F05A82E60E08AE30E943F05082F60E04E
:100E80008AE30E943F0507FF11C081E0C81AD1081C
:100E90000B2D10E01A2904501109C016D10608F4D0
:100EA0008601B701C8010E945C0502C000E010E0A5
:100EB0007E0181E0E81AF108E1148AE1F8064CF0BD
:100EC0006FEF8CE00E94BC0569E18DE00E94BC05DB
:100ED00009C06C2F61508CE00E94BC056F2D8DE025
:100EE0000E94BC0540E46EE180E80E945105802F1D
:100EF000912F02C080E090E0DF91CF911F910F9180
:100F0000FF90EF90DF90CF90BF90AF900895CF9279
:100F1000DF92EF92FF920F931F93CF93DF93EA013B
:100F2000890190919F03891761F0E0919C03F091F2
:100F30009D0340E050E060E070E084EF91E00995AF
:100F40005EC061115CC02D30310508F458C0E090DE
:100F50009C03F0909D03E114F10409F450C0C0908B
:100F60009003D0909103F601E40FF51F808590E087
:100F70000E948D10892BB9F1F601EC0FFD1F218520
:100F800030E0205331092A30310580F5F601EC0FAD
:100F9000FD1F838590E0AC01405351094A30510553
:100FA00040F5C901880F991F220F331F220F331FED
:100FB000220F331F280F391FF601EC0FFD1F82850A
:100FC00090E0C097280F391FC901880F991F220F81
:100FD000331F220F331F220F331F280F391FCA015F
:100FE000820F931F08C080E090E005C080E090E091
:100FF00002C080E090E0A801BE01F701099580E001
:10100000DF91CF911F910F91FF90EF90DF90CF90E4
:101010000895CF92DF92EF92FF920F931F93CF9399
:10102000DF938C01DB01413061F46B0188E0C81A69
:10103000D108E12CF12CE1E1CE0ED11CE11CF11C18
:1010400011C0423061F46B01F8E0CF1AD108E12CF5
:10105000F12C86E0C80ED11CE11CF11C03C0C12C90
:10106000D12C7601A230B10508F1F80131969D012D
:10107000EF012197488150E060E070E0762F652F06
:10108000542F44278081482BC40ED51EE61EF71E20
:101090002250310932962230310550F7CD010297A6
:1010A0008E7F0296080F191FA170BB27AB2B69F02A
:1010B000F801808190E0A0E0B0E0BA2FA92F982F2E
:1010C0008827C80ED91EEA1EFB1EA70166277727B0
:1010D000411551056105710571F0EE24FF24C40E20
:1010E000D51EE61EF71EA701662777274115510575
:1010F0006105710591F7C60180959095DF91CF91BB
:101100001F910F91FF90EF90DF90CF90089500977F
:1011100041F026E0FC01A8EBB3E001900D922A9586
:10112000E1F70895FC01328DFB01208132130DC0DF
:10113000DC015B9631964E963D912191321307C0AA
:10114000A817B907C9F781E0089580E0089580E005
:10115000089569327105C8F0FC0124852830B9F47E
:1011600025852630B1F436A12091B403321313C083
:10117000B796A5EBB3E08A9631912D9132130DC04D
:10118000E817F907C9F781E0089580E0089580E045
:10119000089580E0089580E0089580E00895CF9359
:1011A000DF93FC016A327105E0F084858830D9F460
:1011B000858581111AC096859534C1F4268D90914C
:1011C000B403291313C0DF015F96C5EBD3E0B296D9
:1011D0002D91999129130AC0AE17BF07C9F781E075
:1011E00005C080E003C080E001C080E0DF91CF91C6
:1011F0000895CF93DF93FC01C8EBD3E09C012A5FF5
:101200003F4FD9018C91819389918D93E217F30718
:10121000C9F7DF91CF910895CF93DF93EC01188E3A
:10122000198E80E48C8B1D8A8E8B40E064E170E027
:10123000CE010E960E940908988F898FDF91CF9179
:101240000895CF93DF939C01DC015E96C4EBD3E05D
:10125000FC017A96AC014E5D5F4F90819D93999110
:101260009193A417B507C9F7C9010E940C09DF9132
:10127000CF9108959C01265D3F4FFC01BE96D90198
:101280008E91680F711D82916083442311F08C93BD
:1012900001C01C92672F77272E173F0789F7089503
:1012A000CF93DF93EC018CA19AA19CA38AA38DA17B
:1012B0009BA19DA38BA3CE010E943A091AAA1BAA47
:1012C00080E58EA7DF91CF9108950F931F93CF9361
:1012D000DF938C010E94F908E8011C8A82E08D8B63
:1012E000D801909628EB33E0F8017696A8014A5D84
:1012F0005F4F80818D93E90189919E018193A417AD
:10130000B507B9F7A4EBB3E0F8017C969801265D28
:101310003F4F8081EA018993AE018D918193C2177D
:10132000D307B9F7B8018AE290E00E94BB06DF91CB
:10133000CF911F910F9108950F931F93CF93DF9338
:10134000EC018B010E94F908CE010E9421091AA22A
:101350009CA1983F18F02DA12F5F2DA3985F9CA30F
:10136000BE01C8010E94BB06DF91CF911F910F9172
:101370000895FC01208930E0322F22278189282B13
:101380002451310986A582958F70A90164E0869F5A
:10139000401951091124CA01992314F480E090E006
:1013A00008959A012F5F3F4FFA014491442369F059
:1013B000FB01F696DC01AE0FBF1FF9014D936F5F85
:1013C0007F4F449131964111F9CFCB0108952223EB
:1013D00091F0A42FB52FAB014A5C5F4FFC01E40FE5
:1013E000F51F922F3D9131939150E1F72150620FFB
:1013F000711D6F5F7F4FCB010895FA0101900020AE
:10140000E9F731979F01241B350B0E94E7090895E6
:10141000EF92FF920F931F93CF93DF9300D000D0F2
:101420001F92CDB7DEB790919F038913A8C080911A
:101430009E03811130C0009190031091910346E109
:1014400053E060E070E0C8010E94D109409196032A
:1014500050919703BC01C8010E94D10940919403A7
:1014600050919503BC01C8010E94FD0944E053E07E
:10147000BC01C8010E94D10940919203509193038D
:10148000BC01C8010E94D10947ED52E0BC01C8016E
:101490000E94D10976C0009190031091910341ED13
:1014A00052E060E070E0C8010E94D10940919603CB
:1014B00050919703BC01C8010E94D1094091940347
:1014C00050919503BC01C8010E94FD094FEB52E009
:1014D000BC01C8010E94D10940919203509193032D
:1014E000BC01C8010E94D109E0909A03F0909B03CF
:1014F000E114F10459F04CEB52E0BC01C8010E9428
:10150000D109A701BC01C8010E94D10947E952E0F5
:10151000BC01C8010E94D10946E852E0BC01C801E3
:101520000E94D1097C01A0919803B0919903FD011B
:1015300001900020E9F731974AE0BE016F5F7F4FCD
:10154000CF018A1B9B0B0E94BB100091900310914E
:101550009103AE014F5F5F4FB701C8010E94FD09C3
:1015600040E552E0BC01C8010E94D10940919803B6
:1015700050919903BC01C8010E94FD0902C080E09E
:1015800090E00F900F900F900F900F90DF91CF9100
:101590001F910F91FF90EF900895FF920F931F936B
:1015A000CF93DF93EC018B01F42E0E94F9088F2D6D
:1015B00080618FA784E0F81206C041E0B801CE0137
:1015C0000E9450090AC00115110511F401E010E054
:1015D00041E0B801CE010E945009188A88E2898B47
:1015E000CE010E94210984E088AB19AA42E06CE197
:1015F00070E0CE014A960E9409089AAB8BABBE01FF
:1016000086E390E00E94BB06DF91CF911F910F917E
:10161000FF9008950F931F93CF93DF93EC018B01FD
:10162000CB018896988B898BCE010E940C091AAA4F
:101630001BAAB801645E7F4F42E0CE014A960E9429
:1016400009089AAB8BABBE01C801C6960E94BB06C7
:10165000DF91CF911F910F9108959C016115710544
:1016600051F0FB01A4EBB3E06C5F7F4F91919D9330
:10167000E617F707D9F72115310519F0C9010E94BE
:101680008708089590938903809373000895CF93FA
:10169000DF93EC010E94F908188A8CE2898BCE0155
:1016A0000E94210982E18FA740E061E070E0CE0155
:1016B0000E9450091EA21FA28091770088A719A638
:1016C0008D5F8093770082E08EAB84E08FAB85E006
:1016D00088AF19AE80E68EA78AE088AB19AA42E0EF
:1016E00060E270E0CE014A960E9409089AAB8BAB8B
:1016F000BE018AE390E00E94BB06DF91CF9108957E
:101700000F931F93CF93DF93EC018B0160918703BD
:101710007091880340E00E94CD0A89E18FA7B8014B
:10172000CE010E940A0BDF91CF911F910F91089576
:10173000DC01FA016115710541F0680F791F849190
:101740008D933196A617B707D1F70895AF92BF9240
:10175000CF92DF92EF92FF920F931F93CF93DF937D
:10176000EC01D62EC72E7A01B22EA32EF801AC01C1
:1017700088EB93E08E010A5F1F4FBF016A5F7F4FC6
:101780002191DA012D93AD01DC012D91CD01D8011C
:101790002D938D01E617F70799F788E08C871D8652
:1017A00043E253E069E070E0CE010E960E94980B90
:1017B000809172008B8B8F5F80937200188A81E119
:1017C0008F8BF7019E01225E3F4F84EB93E0BE01B9
:1017D000665E7F4FB4E0EB0EF11C4191D9014D9351
:1017E0009D01DC014D91CD01DB014D93BD01EE1555
:1017F000FF0599F7ACA2BDA2CAA2DBA21EA218A641
:1018000019A6DF91CF911F910F91FF90EF90DF907C
:10181000CF90BF90AF9008950F931F93CF93DF9316
:10182000EC018B01CB014C96898B988BCE010E94E9
:101830000C09C80108968FA39EA3B801605F7F4F73
:1018400041E0CE014A960E94090889A798A7BE01E7
:10185000C8018A960E94BB06DF91CF911F910F911C
:101860000895CF92DF92EF92FF920F931F93CF9341
:10187000DF936C018091B403882309F445C0F6011D
:1018800008EB13E096012A5F3F4FE901D8014FEFC3
:1018900041939D919993E217F307D1F77B0188E07B
:1018A000E6018C8786E08D874BE153E068E070E0CD
:1018B000C6010E960E94980BC6014696F601B09698
:1018C000D6019696E80129918E01EC012993CE016B
:1018D0001192EA17FB07B1F7F70124EB33E0C601D9
:1018E0004C96D4E0ED0EF11C41914D93E9014991E4
:1018F0009E01EC014993CE01EE15FF05A9F7B60153
:101900008AE290E00E94BB06DF91CF911F910F9178
:10191000FF90EF90DF90CF90089581E090918B033E
:10192000923009F480E008955093BF034093BE03C2
:1019300021E020938B0360938A03FC01ACE8B3E0C1
:10194000049621912D93E817F907D9F70895AF92DE
:10195000BF92DF92EF92FF920F931F93CF93DF938B
:10196000EC01F62EE42ED52EE7EAF3E09C0188EB9D
:1019700093E05E0146E0A40EB11C0DEA13E0419134
:10198000D9014D939D01DC017D91CD01D5017D9360
:101990005D01E017F10799F788E08C871D8643E227
:1019A00053E069E070E0CE010E960E94980B8CE245
:1019B000898B809172008B8B8F5F8093720086E0A1
:1019C0008F8BEDEAF3E09E01225E3F4F84EB93E0C4
:1019D0008E01065E1F4F580161EB73E04191D90102
:1019E0004D939D01DC014D91CD01D5014D935D01DC
:1019F000E617F70799F7CE010E940C09DCA2EDA2C9
:101A00008BE08AA3FBA2FE01B696CE018E961192C0
:101A1000E817F907E1F78091770088A78D5F809339
:101A2000770080E68EA782E08FA793E098AB19AA93
:101A30001AAA1BAA1CAA1DAA8EAB94E09FAB88AF62
:101A40008EEE89AF42E060E270E0C8010E940908B2
:101A50009AAB8BABBE018AE390E00E94BB06DF919C
:101A6000CF911F910F91FF90EF90DF90BF90AF90BB
:101A700008950F931F939093A3038093A2037093F1
:101A8000A1036093A003F901ADEAB3E02C5F3F4FDF
:101A900081918D93E217F307D9F7F801A7EAB3E034
:101AA0000A5F1F4F81918D93E017F107D9F750938B
:101AB000A5034093A40381E08093A6038091B10322
:101AC0008F5F883018F48093B10302C01092B10385
:101AD0008091B1031F910F9108956F927F928F9221
:101AE0009F92AF92BF92CF92DF92EF92FF920F93AD
:101AF0001F93CF93DF934C015B016A013901E80129
:101B00000E94B4068823F1F0909297038092960386
:101B1000B0929503A0929403D0929303C092920343
:101B200010929E0370929D0360929C0387019E0118
:101B300040E550E068E07AE087E897E00E94390DE0
:101B400080939F03DF91CF911F910F91FF90EF90B2
:101B5000DF90CF90BF90AF909F908F907F906F90CD
:101B600008959093B3038093B2030895DF92EF92A8
:101B7000FF920F931F93CF93DF938C01EB0120977C
:101B800009F056C080918B03893079F480917400FC
:101B900090917500892BF9F40E94B406882329F0EE
:101BA0006CE873E0C8010E94310C80918B03813096
:101BB00091F40E94B406882371F06CE873E0C801C8
:101BC0000E94310C80918B03886080938B0310926C
:101BD00075001092740080917400909175000196C8
:101BE00090937500809374008091A603813009F072
:101BF000A8C10E94B406882309F4A6C182E080939C
:101C0000A603609176006F5F609376004091A40315
:101C10005091A5036F718091B10320E2829FC001B2
:101C20001124682BC8010E94A70CE12CF12CC0C123
:101C30000E94A908882371F1D80155968C918130B2
:101C400019F4C8010E94650980918B0383FF7FC14D
:101C5000F8018589823009F07DC144E050E06CE8EC
:101C600073E0C8014C960E949510892B09F075C14C
:101C7000A8014A5E5F4FE091BE03F091BF036091FF
:101C80008A038CE893E0099582E080938B03E12C32
:101C9000F12C8EC1BE01C8010E94CF08882309F42F
:101CA0005FC1D80157968C9157978130A9F49296CD
:101CB0008C91883009F057C1E091B203F091B303E1
:101CC000309719F0C8014A960995BE01C8010E94D3
:101CD0009C09E12CF12C6CC1C633D10508F446C136
:101CE000863009F046C1F80184A18B3009F0F0C0BC
:101CF00010939103009390036DEA73E0C8010E9472
:101D00009208882309F438C1D8019F96DC909F97E8
:101D1000D2FE17C0E091A203F091A303309759F0CF
:101D200095968C9120E030E040E050E063E08295B1
:101D300086958770099586E08093A603E12CF12CA7
:101D400037C1C8010E94B9097C018091A603823085
:101D5000D9F59D2D90718D2D8271823119F540E05C
:101D600060E070E0C8010E94CD0A88E1F80187A711
:101D7000E091A003F091A103309741F0D801939630
:101D80008C91829586958770099502C080E090E0DD
:101D900023E02093A603BC01C8010E940A0BE12C9A
:101DA000F12C06C181E08093A603911104C0B70114
:101DB0006F5F7F4F02C060E070E044E0C8010E94A6
:101DC000CD0AE12CF12CF4C0833009F03FC0E114BE
:101DD000F10409F4E6C084E08093A603E091A20335
:101DE000F091A303309709F456C0D8019E964C9108
:101DF00042954F70B4E04B9FA0011124CE0108978B
:101E00004E5D5F4F8417950708F4AC01C701840F3E
:101E1000951FC817D90720F49E01241B350B01C05C
:101E20009701D80195968C9160E082958695877090
:101E30000995882359F049E0B701C8010E94CD0AED
:101E400085E08093A603E12CF12CB2C08091A6031B
:101E5000853051F4F80187A584FF91C086E0809316
:101E6000A603E12CF12CA4C08630A9F4D8019F96DA
:101E70008C9184FD04C0B7016F5F7F4F02C060E0AA
:101E800070E044E0C8010E94CD0A87E08093A60379
:101E9000E12CF12C8DC0F80187A580FF0DC0B701A2
:101EA0006F5F7F4F41E0C8010E94CD0A85E08093BB
:101EB000A603E12CF12C7CC0E114F10409F462C00A
:101EC00040E0B701C8010E94CD0AE12CF12C70C09E
:101ED00090918903891359C095A18091730098133B
:101EE00057C0D7A4D1FE06C0C8010E94470BE12C01
:101EF000F12C5EC0D4FE4FC0C8010E94B9097C011C
:101F00009093880380938703892B49F4D0FE50C0B7
:101F100040E060E070E0C8010E94CD0A49C0F801CD
:101F2000E6A4E694E694E694E694F4E0EF9E70016D
:101F3000112422E2E20EF11C2897CE15DF0570F184
:101F400037C0E12CF12C34C0E12CF12C31C0E12C54
:101F5000F12C2EC0E12CF12C2BC0E12CF12C28C04F
:101F6000E12CF12C25C0E12CF12C22C0E12CF12C2C
:101F70001FC0E12CF12C1CC0E12CF12C19C0E12C6C
:101F8000F12C16C0E12CF12C13C0E12CF12C10C067
:101F9000E12CF12C0DC0E12CF12C0AC0E12CF12C2C
:101FA00007C0D8019F968C9180FD79CFE12CF12C50
:101FB000C701DF91CF911F910F91FF90EF90DF90BC
:101FC0000895FB01982F9F70292F30E02A303105AA
:101FD0001CF4905D918302C0995A918382958F7011
:101FE0008A3018F4805D808302C0895A808312820F
:101FF0000895EF92FF920F931F93CF93DF938B017E
:102000007C01D5E216C0C03239F08C2F90E00E94DE
:102010007510892B11F405C0CBE2F801C1938F0133
:1020200008C0F801D193BF018C2F0E94E10F0D5F12
:102030001F4FF701C1917F01C111E5CFF801108257
:10204000DF91CF911F910F91FF90EF9008958F92A4
:102050009F92AF92BF92CF92DF92EF92FF920F9337
:102060001F93CF93DF937C01D22F442359F16B014F
:102070004150842F90E001965B01A80EB91EC0E08C
:10208000802E912C87010C0F111DF60181916F019B
:10209000A401B80190E00E94B010F801808188236B
:1020A00041F0CF5F87010C0F111DF8018081811174
:1020B000F8CFDD2319F0F801D083CF5FCA14DB0419
:1020C00009F701C0C0E0C150F701EC0FF11D10820B
:1020D000DF91CF911F910F91FF90EF90DF90CF9004
:1020E000BF90AF909F908F90089591110C947F10A6
:1020F00080538A5018F0865C0C94851008959927B7
:102100008827089585FD0C947F10806291110C94AE
:102110007F1081568A51D8F7089591110C947F1041
:10212000803211F08930D1F70895FB01DC0104C041
:102130008D910190801921F441505040C8F7881BBF
:10214000990B0895FB01DC014150504030F08D9116
:102150000190801919F40020B9F7881B990B089594
:102160004532510520F4423010F00C94BB10FB01B5
:102170001082CB010895BB274A3031F4992322F411
:10218000BDE2909581959F4F0C94C710BB27FB0132
:102190005527AA27880F991FAA1FA41710F0A41B60
:1021A00083955051B9F7A05DAA3308F0A95DA193BA
:1021B000009779F7B111B1931192CB010C94E01013
:1021C000DC01FC01672F71917723E1F7329704C09E
:1021D0007C916D9370836291AE17BF07C8F3089529
:0421E000F894FFCFA1
:1021E400C0A80101C0A8011D5455581000290808B1
:1021F400080802500100010A3139322E3136382ED6
:10220400312E390047455420002F2000706173732C
:102214003D377336643700616464726573733D30AF
:102224000076616C75653D3000616464726573733A
:102234003D3100616464726573733D3200616464AE
:08224400726573733D33000065
:00000001FF
