:100000000C9499010C94B6010C94B6010C94B601B1
:100010000C94B6010C94B6010C94B6010C94AC028D
:100020000C94B6010C94B6010C94B6010C94B60174
:100030000C94B6010C94B6010C94B6010C94B60164
:100040000C94B6010C94B6010C94B6010C94B60154
:100050000C94B6013C68313E323030204F4B3C2F7F
:1000600068313E002F66726F6D6465766963652F37
:1000700067657469702E7068703F706173733D3787
:10008000733664372664693D3046302D3030302D6C
:100090004630462D3030302D304630266F72647039
:1000A0003D713739747933386A636C6435796762C6
:1000B00068676B6C37396C006C656E6B6572616E6E
:1000C000697374656B2E636F6D000A3C2F707265E7
:1000D0003E3C62723E3C68723E000A636865636B38
:1000E00020726573756C743A203C61206872656695
:1000F0003D687474703A2F2F7475786772617068F8
:100100006963732E6F72672F6367692D62696E2F43
:1001100075706C643E687474703A2F2F74757867CC
:10012000726170686963732E6F72672F6367692DE0
:1001300062696E2F75706C643C2F613E000A436CDF
:1001400069656E742073746172743A20000A4E758A
:100150006D626572207375636365737366756C2079
:10016000646174612075706C6F61647320746F20BA
:100170007765623A20004E756D626572206F662069
:10018000646174612075706C6F6164732073746155
:10019000727465642062792070696E673A2000206D
:1001A00028303D6E6F206572726F72290A004572A9
:1001B000726F7220636F64653A20007761697469B9
:1001C0006E6720666F7220444E5320616E737765B0
:1001D000722E0A0020746F20616E73776572206141
:1001E00072702E0A0077616974696E6720666F729B
:1001F00020475720003C68323E77656220636C6977
:10020000656E74207374617475733C2F68323E0A96
:100210003C7072653E0A00485454502F312E3020F5
:10022000323030204F4B0D0A436F6E74656E742D63
:10023000547970653A20746578742F68746D6C0D0C
:100240000A507261676D613A206E6F2D6361636859
:10025000650D0A0D0A000D0A436F6E74656E742DEC
:10026000547970653A206170706C69636174696F6C
:100270006E2F782D7777772D666F726D2D75726C76
:10028000656E636F6465640D0A0D0A00436F6E74DA
:10029000656E742D4C656E6774683A20000D0A55C2
:1002A0007365722D4167656E743A207467722F31E1
:1002B0002E310D0A4163636570743A202A2F2A0D8E
:1002C0000A000D0A0020485454502F312E310D0AD7
:1002D000486F73743A2000504F535420000D0A5554
:1002E0007365722D4167656E743A207467722F31A1
:1002F0002E310D0A4163636570743A207465787419
:100300002F68746D6C0D0A0D0A0020485454502F4C
:10031000312E310D0A486F73743A2000474554203E
:1003200000000108000604000145000082000040B2
:10033000002011241FBECFE5D8E0DEBFCDBF10E006
:10034000A0E6B0E0E0E0F1E202C005900D92AE3C24
:10035000B107D9F723E0AEECB0E001C01D92A63C96
:10036000B207E1F70E94C8020C947E100C940000C2
:100370002091D40021110CC021E02093D400FC0175
:10038000A5EDB0E0049621912D93E817F907D9F770
:100390000895883C910529F48091D2008F5F809365
:1003A000D2000895613051F4FA01ADE7B3E04A5F3D
:1003B0005F4F81918D93E417F507D9F7089547E1D1
:1003C00052E060E070E089ED90E00E94BA09089583
:1003D000CF92DF92EF92FF920F931F93CF93DF9311
:1003E000CDB7DEB761970FB6F894DEBF0FBECDBFB5
:1003F0007C010E94DF0145EF51E0BC01C7010E9472
:10040000BA09BC019091CE009130E9F445EE51E07B
:10041000C7010E94BA096C010AE02EE244E060E6DE
:1004200070E0CE0101960E94CA0FAE014F5F5F4F90
:10043000B601C7010E94E60944ED51E0BC01C701C5
:100440000E94BA097AC08091CF00813031F54BEB20
:1004500051E0C7010E94BA098C010E941504D82EF0
:100460004EEA51E0B801C7010E94BA098C014AE086
:10047000BE016F5F7F4F8D2D90E00E944910AE014D
:100480004F5F5F4FB801C7010E94E6094FE951E095
:10049000BC01C7010E94BA0950C046E751E0C7013C
:1004A0000E94BA098C018091D3004AE0BE016F5FBF
:1004B0007F4F90E00E944910AE014F5F5F4FB8013F
:1004C000C7010E94E6094DE451E0BC01C7010E944A
:1004D000BA098C018091D2004AE0BE016F5F7F4F64
:1004E00090E00E944910AE014F5F5F4FB801C70115
:1004F0000E94E6094DE351E0BC01C7010E94BA0920
:100500008C018091D4004AE0BE016F5F7F4F90E084
:100510000E944910AE014F5F5F4FB801C7010E94B2
:10052000E6094AED50E0BC01C7010E94BA094AEC55
:1005300050E0BC01C7010E94BA0961960FB6F89459
:10054000DEBF0FBECDBFDF91CF911F910F91FF9006
:10055000EF90DF90CF9008951F920F920FB60F92F9
:1005600011248F938091D0008F5F8093D000809171
:10057000D000833338F01092D0008091D1008F5F8B
:100580008093D1008F910F900FBE0F901F90189500
:100590008FEF8ABBC0E08C2F8A95F1F788E690E058
:1005A0000E94F80582E00E94F205CA95F1F778945E
:1005B00066E774E084E10E94D505B99A64E670E0CC
:1005C00088E690E00E94160B80E590E00E942B0BDD
:1005D00088EB91E00E949A0D6894CC24C1F8DD2448
:1005E000D39469ED70E08AE892E00E94ED06EC0198
:1005F000BC0189ED90E00E949F0D8C01209709F0CD
:100600006FC08091CE00811109C042ED51E06D2D87
:1006100080E690E00E947D0CD092CE000E94760C85
:1006200081110BC08091CE00813039F4C092CE0090
:100630008091CF00882349F019C08091CF008111AB
:1006400015C08091CE00823009F50E949D06882356
:1006500041F21092D100D092CF004DE753E068E70D
:1006600070E089ED90E00E942304BBCF813051F40B
:100670000E941204882331F0C092CF0089E793E0F2
:100680000E9418048091CF00823041F08091D10007
:10069000823008F4A6CF1092CF00A3CF8091D4006F
:1006A0008130D9F41092D100C092D4008091D3004F
:1006B0008F5F8093D3000F2EFDE7EF2EF3E0FF2E28
:1006C000F02D09E713E029EC31E048EB50E064E657
:1006D00073E084E690E00E94560D1092D40081CF22
:1006E000009731F4BE0189ED90E00E94A80479CF13
:1006F00044E050E0BC0167527F4F8AE890E00E94DE
:100700003010892B59F00E94DF0144E550E0BC0114
:1007100089ED90E00E94BA098C017EC042E050E071
:10072000B80163527F4F8FE890E00E943010892B10
:1007300041F40E94DF0189ED90E00E94E8018C0104
:100740006BC04AE050E0B80162527F4F82E990E00E
:100750000E943010892B09F05FC0E801C751DF4FBC
:1007600049E050E0BE018DE990E00E943010892BF5
:1007700071F447E050E0B8016D507F4F87EA90E098
:100780000E943010892B11F4D89801C0D89A49E002
:1007900050E0BE018FEA90E00E943010892B71F486
:1007A00047E050E0B8016D507F4F87EA90E00E942B
:1007B0003010892B11F4D99801C0D99A49E050E042
:1007C000BE0189EB90E00E943010892B71F447E064
:1007D00050E0B8016D507F4F87EA90E00E943010E2
:1007E000892B11F4DA9801C0DA9A49E050E0BE0191
:1007F00083EC90E00E943010892B71F447E050E0C8
:10080000B8016D507F4F87EA90E00E943010892B2D
:1008100011F4DB9801C0DB9AB80189ED90E00E94E9
:10082000690BDFCE8091880308958091830308953A
:10083000E4E8F3E0DC0128E833E081918D93E217EE
:10084000F307D9F70895EF92FF920F931F93CF9379
:10085000DF93EC017B018A01109288030E949D06C0
:10086000811105C084E08093830381E06AC0109207
:100870008303609189036F5F6093890370E0706EFA
:1008800025E330E04EE650E0CE010E948F0B8091D0
:1008900089038BA781E08CA7FE01BD96CE01C69689
:1008A0001192E817F907E1F781E08FA7F70190812E
:1008B0009923C9F02CE06DE030E09E3241F4DE0176
:1008C000A20FB11D81509A968C93262F832F919160
:1008D000DE01A60FB11D9A969C938F5F6F5F90818A
:1008E0009111EBCF03C081E02CE06DE0FE01E20F3F
:1008F000F11D815082A7FE01E60FF11D12A681E0D5
:10090000860FFE01E80FF11D12A682E0860FFE01A0
:10091000E80FF11D81E082A793E0960FFE01E90F39
:10092000F11D12A694E0960FFE01E90FF11D82A7BA
:1009300089EF860F8AA76B5F70E0CE010E94F50BEE
:1009400080E0DF91CF911F910F91FF90EF9008957C
:10095000FC016634710508F471C083A1853309F088
:100960006FC084A1803E09F06DC085A1909189037C
:1009700089136AC093A5891369C085A58F788038CB
:1009800029F081E08093830380E0089592A5945F2D
:1009900061537109DF01A90FB11D9A968C91807C7A
:1009A00061F09E5F0FC09F5FDF01A90FB11D9A9696
:1009B0008C91811102C09F5F05C0292F30E026175E
:1009C000370788F3292F30E0DF01A20FB31F9B9672
:1009D0008C91813099F088E0890FDF01A80FB11D5B
:1009E0009B968C91965F980F292F30E0261737073A
:1009F00088F283E08093830380E00895DF01A20FF3
:100A0000B31FD3962C91243029F082E08093830386
:100A100080E008952AE0290F30E0265D3F4FE20F85
:100A2000F31FA4E8B3E028E833E091919D93A21767
:100A3000B307D9F791E090938803089580E0089573
:100A400080E0089580E0089580E0089580E00895B2
:100A5000C298962F6F71862B8FB9779BFECF1FB8E8
:100A6000779BFECF99231CF41FB8779BFECFC29AC9
:100A70008FB10895C2986F71862B8FB9779BFECF87
:100A80004FB9779BFECFC29A0895FB01C2982AE323
:100A90002FB9779BFECF009761F0DF01A80FB91F38
:100AA0001FB8779BFECF9FB19193EA17FB07C1F761
:100AB00001C0DF011C92C29A0895FB01C2982AE787
:100AC0002FB9779BFECF08C09F01280F391F919146
:100AD0009FB9779BFECF03C00097B1F703C0E21721
:100AE000F307A9F7C29A08951F93CF93DF93182FA6
:100AF0001076C12FD0E020918C0330E0C217D307CD
:100B0000B1F043E06FE180EA0E943A05AE015595ED
:100B100047955595479555954795559547955595BD
:100B200047956FE180E80E943A0510938C03DF91AE
:100B3000CF911F910895CF93C82F0E9474056C2FF9
:100B400080E00E942805CF910895CF93DF93C82FAE
:100B5000D62F0E9474054D2F6C2F80E40E943A0519
:100B6000DF91CF910895CF93682F84ED0E94A50562
:100B700061E082ED0E94A5058AEE0E949B0580FD42
:100B8000FBCF60E082ED0E94A50589ED0E949B05E8
:100B9000C82F88ED0E949B052C2F30E0322F222792
:100BA000A901482BCA01CF910895CF93DF93D62F87
:100BB000C72F682F84ED0E94A5056D2F86ED0E943A
:100BC000A5056C2F87ED0E94A505C8E203C08C2FF8
:100BD0008A95F1F78AEE0E949B0580FDF8CFDF91A0
:100BE000CF910895682F677085E70E94A505089545
:100BF000CF93DF93EC01BA9AC29A87B3806A87BB1E
:100C0000BE98C598C79880E58DB9709A4FEF60E09F
:100C10008FEF0E943A0580E090E00197F1F7109283
:100C20008B0310928A0360E088E00E94A50560E0D3
:100C300089E00E94A50560E08CE00E94A50560E0C7
:100C40008DE00E94A5056FEF8AE00E94A50569E18D
:100C50008BE00E94A50560E084E00E94A5056AE1A2
:100C600085E00E94A5056FEF86E00E94A5056FE173
:100C700087E00E94A50560EB88E30E94A5056FE36D
:100C800088E20E94A50560E389E20E94A50569EF5C
:100C900080E30E94A50567EF81E30E94A5056DE052
:100CA00080EC0E94A50560E081EC0E94A50542E36E
:100CB00062EC80E80E943A0562E186EC0E94A5059C
:100CC0006CE087EC0E94A50562E184EC0E94A5051A
:100CD0006CED8AEC0E94A50565E08BEC0E94A505F1
:100CE000688184EE0E94A505698185EE0E94A505B4
:100CF0006A8182EE0E94A5056B8183EE0E94A505A4
:100D00006C8180EE0E94A5056D8181EE0E94A50593
:100D100060E071E080E10E94D5058FE10E947405DA
:100D200040EC6BE180E80E943A0544E06FE180E826
:100D30000E943A05DF91CF91089581E10E94B305A9
:100D400092FB882780F908950F931F93CF93DF9329
:100D5000EC018B016FE180E00E94280583FDFACF52
:100D60008CE10E949B0581FF13C040E86FE180E8A1
:100D70000E943A0540E86FE180EA0E943A0542E0AD
:100D80006CE180EA0E943A0580E395E70197F1F76C
:100D900060E082E00E94A5056AE183E00E94A5056B
:100DA0006C2F86E00E94A505CE01965E692F87E034
:100DB0000E94A50540E060E08AE70E943A05B8017C
:100DC000CE010E945D0548E06FE180E80E943A058F
:100DD000DF91CF911F910F910895AF92BF92CF9263
:100DE000DF92EF92FF920F931F93CF93DF936C01EB
:100DF0007B0189E30E949B05882309F464C060910C
:100E00008A03C0918B0380E00E94A5056C2F81E0CE
:100E10000E94A50560E08AE30E942805C82F60E0D3
:100E20008AE30E942805D0E0D82BD0938B03C0938F
:100E30008A0360E08AE30E942805B82E60E08AE316
:100E40000E942805A82E60E08AE30E942805082F4A
:100E500060E08AE30E94280507FF11C081E0C81AFC
:100E6000D1080B2D10E01A2904501109C016D10623
:100E700008F48601B701C8010E94450502C000E0E0
:100E800010E07E0181E0E81AF108E1148AE1F80639
:100E90004CF06FEF8CE00E94A50569E18DE00E94A7
:100EA000A50509C06C2F61508CE00E94A5056F2D2F
:100EB0008DE00E94A50540E46EE180E80E943A05BD
:100EC000802F912F02C080E090E0DF91CF911F91A1
:100ED0000F91FF90EF90DF90CF90BF90AF9008956B
:100EE000CF92DF92EF92FF920F931F93CF93DF93F6
:100EF000EA0189019091A503891761F0E091A203AD
:100F0000F091A30340E050E060E070E084EF91E0F6
:100F100009955EC061115CC02D30310508F458C0E0
:100F2000E090A203F090A303E114F10409F450C08F
:100F3000C0909603D0909703F601E40FF51F8085CB
:100F400090E00E941B10892BB9F1F601EC0FFD1FF8
:100F5000218530E0205331092A30310580F5F60132
:100F6000EC0FFD1F838590E0AC01405351094A30DE
:100F7000510540F5C901880F991F220F331F220F19
:100F8000331F220F331F280F391FF601EC0FFD1FEF
:100F9000828590E0C097280F391FC901880F991FDB
:100FA000220F331F220F331F220F331F280F391F29
:100FB000CA01820F931F08C080E090E005C080E066
:100FC00090E002C080E090E0A801BE01F701099521
:100FD00080E0DF91CF911F910F91FF90EF90DF9014
:100FE000CF900895CF92DF92EF92FF920F931F93CD
:100FF000CF93DF938C01DB01413061F46B0188E01A
:10100000C81AD108E12CF12CE1E1CE0ED11CE11C73
:10101000F11C11C0423061F46B01F8E0CF1AD10825
:10102000E12CF12C86E0C80ED11CE11CF11C03C0A0
:10103000C12CD12C7601A230B10508F1F80131960E
:101040009D01EF012197488150E060E070E0762F2C
:10105000652F542F44278081482BC40ED51EE61ED1
:10106000F71E2250310932962230310550F7CD015A
:1010700002978E7F0296080F191FA170BB27AB2B1A
:1010800069F0F801808190E0A0E0B0E0BA2FA92FCC
:10109000982F8827C80ED91EEA1EFB1EA7016627B7
:1010A0007727411551056105710571F0EE24FF2484
:1010B000C40ED51EE61EF71EA70166277727411529
:1010C00051056105710591F7C60180959095DF91F5
:1010D000CF911F910F91FF90EF90DF90CF900895E7
:1010E000009741F026E0FC01AEEBB3E001900D92D9
:1010F0002A95E1F70895FC01328DFB01208132131E
:101100000DC0DC015B9631964E963D9121913213D4
:1011100007C0A817B907C9F781E0089580E00895CE
:1011200080E0089569327105C8F0FC0124852830FB
:10113000B9F425852630B1F436A12091BA033213D3
:1011400013C0B796ABEBB3E08A9631912D91321371
:101150000DC0E817F907C9F781E0089580E0089508
:1011600080E0089580E0089580E0089580E008958B
:10117000CF93DF93FC016A327105E0F084858830FB
:10118000D9F4858581111AC096859534C1F4268DD0
:101190009091BA03291313C0DF015F96CBEBD3E024
:1011A000B2962D91999129130AC0AE17BF07C9F7BE
:1011B00081E005C080E003C080E001C080E0DF91F5
:1011C000CF910895CF93DF93FC01CEEBD3E09C0148
:1011D0002A5F3F4FD9018C91819389918D93E217BA
:1011E000F307C9F7DF91CF910895CF93DF93EC0117
:1011F000188E198E80E48C8B1D8A8E8B40E064E102
:1012000070E0CE010E960E94F207988F898FDF91D1
:10121000CF910895CF93DF939C01DC015E96CAEBDA
:10122000D3E0FC017A96AC014E5D5F4F90819D93B7
:1012300099919193A417B507C9F7C9010E94F508C0
:10124000DF91CF9108959C01265D3F4FFC01BE9632
:10125000D9018E91680F711D82916083442311F032
:101260008C9301C01C92672F77272E173F0789F7B1
:101270000895CF93DF93EC018CA19AA19CA38AA33C
:101280008DA19BA19DA38BA3CE010E9423091AAA25
:101290001BAA80E58EA7DF91CF9108950F931F932E
:1012A000CF93DF938C010E94E208E8011C8A82E060
:1012B0008D8BD80190962EEB33E0F8017696A8013D
:1012C0004A5D5F4F80818D93E90189919E018193F1
:1012D000A417B507B9F7AAEBB3E0F8017C9698011B
:1012E000265D3F4F8081EA018993AE018D91819304
:1012F000C217D307B9F7B8018AE290E00E94A406AA
:10130000DF91CF911F910F9108950F931F93CF936A
:10131000DF93EC018B010E94E208CE010E940A09D2
:101320001AA29CA1983F18F02DA12F5F2DA3985FC2
:101330009CA3BE01C8010E94A406DF91CF911F911A
:101340000F910895FC01208930E0322F22278189F6
:10135000282B2451310986A582958F70A90164E05C
:10136000869F401951091124CA01992314F480E081
:1013700090E008959A012F5F3F4FFA014491442372
:1013800069F0FB01F696DC01AE0FBF1FF9014D932A
:101390006F5F7F4F449131964111F9CFCB01089592
:1013A000222391F0A42FB52FAB014A5C5F4FFC01C3
:1013B000E40FF51F922F3D9131939150E1F72150A9
:1013C000620F711D6F5F7F4FCB010895FA0101908D
:1013D0000020E9F731979F01241B350B0E94D009AB
:1013E0000895EF92FF920F931F93CF93DF9300D056
:1013F00000D01F92CDB7DEB79091A5038913A8C086
:101400008091A403811130C000919603109197033D
:101410004CE153E060E070E0C8010E94BA094091DD
:101420009C0350919D03BC01C8010E94BA094091E0
:101430009A0350919B03BC01C8010E94E6094AE04F
:1014400053E0BC01C8010E94BA0940919803509131
:101450009903BC01C8010E94BA094DED52E0BC01DC
:10146000C8010E94BA0976C00091960310919703B3
:1014700047ED52E060E070E0C8010E94BA09409177
:101480009C0350919D03BC01C8010E94BA09409180
:101490009A0350919B03BC01C8010E94E60945ECE8
:1014A00052E0BC01C8010E94BA09409198035091D2
:1014B0009903BC01C8010E94BA09E090A003F09012
:1014C000A103E114F10459F042EC52E0BC01C8015F
:1014D0000E94BA09A701BC01C8010E94BA094DE9DE
:1014E00052E0BC01C8010E94BA094CE852E0BC01BC
:1014F000C8010E94BA097C01A0919E03B0919F038C
:10150000FD0101900020E9F731974AE0BE016F5FCD
:101510007F4FCF018A1B9B0B0E94491000919603BD
:1015200010919703AE014F5F5F4FB701C8010E9452
:10153000E60946E552E0BC01C8010E94BA094091A3
:101540009E0350919F03BC01C8010E94E60902C09E
:1015500080E090E00F900F900F900F900F90DF9130
:10156000CF911F910F91FF90EF900895FF920F93ED
:101570001F93CF93DF93EC018B01F42E0E94E208BE
:101580008F2D80618FA784E0F81206C041E0B8017A
:10159000CE010E9439090AC00115110511F401E0BC
:1015A00010E041E0B801CE010E943909188A88E2B2
:1015B000898BCE010E940A0984E088AB19AA42E017
:1015C0006CE170E0CE014A960E94F2079AAB8BABB9
:1015D000BE0186E390E00E94A406DF91CF911F91A7
:1015E0000F91FF9008950F931F93CF93DF93EC011A
:1015F0008B01CB018896988B898BCE010E94F508D0
:101600001AAA1BAAB801645E7F4F42E0CE014A9637
:101610000E94F2079AAB8BABBE01C801C6960E942E
:10162000A406DF91CF911F910F9108959C01611540
:10163000710551F0FB01AAEBB3E06C5F7F4F919114
:101640009D93E617F707D9F72115310519F0C90160
:101650000E947008089590938F03809373000895FB
:10166000CF93DF93EC010E94E208188A8CE2898B09
:10167000CE010E940A0982E18FA740E061E070E09C
:10168000CE010E9439091EA21FA28091770088A76F
:1016900019A68D5F8093770082E08EAB84E08FABDC
:1016A00085E088AF19AE80E68EA78AE088AB19AADC
:1016B00042E060E270E0CE014A960E94F2079AABE7
:1016C0008BABBE018AE390E00E94A406DF91CF912C
:1016D00008950F931F93CF93DF93EC018B016091DB
:1016E0008D0370918E0340E00E94B60A89E18FA7B6
:1016F000B801CE010E94F30ADF91CF911F910F91A3
:101700000895DC01FA016115710541F0680F791F38
:1017100084918D933196A617B707D1F70895AF92AC
:10172000BF92CF92DF92EF92FF920F931F93CF93CE
:10173000DF93EC01D62EC72E7A01B22EA32EF8012C
:10174000AC018EEB93E08E010A5F1F4FBF016A5F11
:101750007F4F2191DA012D93AD01DC012D91CD0157
:10176000D8012D938D01E617F70799F788E08C874C
:101770001D8649E253E069E070E0CE010E960E94BA
:10178000810B809172008B8B8F5F80937200188A1F
:1017900081E18F8BF7019E01225E3F4F8AEB93E040
:1017A000BE01665E7F4FB4E0EB0EF11C4191D901A2
:1017B0004D939D01DC014D91CD01DB014D93BD01A8
:1017C000EE15FF0599F7ACA2BDA2CAA2DBA21EA22C
:1017D00018A619A6DF91CF911F910F91FF90EF905E
:1017E000DF90CF90BF90AF9008950F931F93CF934A
:1017F000DF93EC018B01CB014C96898B988BCE014A
:101800000E94F508C80108968FA39EA3B801605FE7
:101810007F4F41E0CE014A960E94F20789A798A720
:10182000BE01C8018A960E94A406DF91CF911F9144
:101830000F910895CF92DF92EF92FF920F931F9333
:10184000CF93DF936C018091BA03882309F445C0DC
:10185000F6010EEB13E096012A5F3F4FE901D80134
:101860004FEF41939D919993E217F307D1F77B01D5
:1018700088E0E6018C8786E08D8741E253E068E0EE
:1018800070E0C6010E960E94810BC6014696F601D5
:10189000B096D6019696E80129918E01EC01299324
:1018A000CE011192EA17FB07B1F7F7012AEB33E0FB
:1018B000C6014C96D4E0ED0EF11C41914D93E90127
:1018C00049919E01EC014993CE01EE15FF05A9F760
:1018D000B6018AE290E00E94A406DF91CF911F91A9
:1018E0000F91FF90EF90DF90CF90089581E090915D
:1018F0009103923009F480E008955093C50340931A
:10190000C40321E02093910360939003FC01A2E9BA
:10191000B3E0049621912D93E817F907D9F70895BC
:10192000AF92BF92DF92EF92FF920F931F93CF93EC
:10193000DF93EC01F62EE42ED52EEDEAF3E09C01C8
:101940008EEB93E05E0146E0A40EB11C03EB13E0C6
:101950004191D9014D939D01DC017D91CD01D501CE
:101960007D935D01E017F10799F788E08C871D866C
:1019700049E253E069E070E0CE010E960E94810BCF
:101980008CE2898B809172008B8B8F5F80937200C9
:1019900086E08F8BE3EBF3E09E01225E3F4F8AEB04
:1019A00093E08E01065E1F4F580167EB73E0419193
:1019B000D9014D939D01DC014D91CD01D5014D9390
:1019C0005D01E617F70799F7CE010E94F508DCA242
:1019D000EDA28BE08AA3FBA2FE01B696CE018E9605
:1019E0001192E817F907E1F78091770088A78D5FDA
:1019F0008093770080E68EA782E08FA793E098AB74
:101A000019AA1AAA1BAA1CAA1DAA8EAB94E09FAB06
:101A100088AF8EEE89AF42E060E270E0C8010E94BC
:101A2000F2079AAB8BABBE018AE390E00E94A4065A
:101A3000DF91CF911F910F91FF90EF90DF90BF90BA
:101A4000AF9008950F931F939093A9038093A803D9
:101A50007093A7036093A603F901A3EBB3E02C5F97
:101A60003F4F81918D93E217F307D9F7F801ADEA63
:101A7000B3E00A5F1F4F81918D93E017F107D9F70B
:101A80005093AB034093AA0381E08093AC03809111
:101A9000B7038F5F883018F48093B70302C01092A9
:101AA000B7038091B7031F910F9108956F927F92B2
:101AB0008F929F92AF92BF92CF92DF92EF92FF925E
:101AC0000F931F93CF93DF934C015B016A013901A0
:101AD000E8010E949D068823F1F090929D03809278
:101AE0009C03B0929B03A0929A03D0929903C09258
:101AF00098031092A4037092A3036092A20387013B
:101B00009E0140E550E061EF79E080E797E00E94B8
:101B1000220D8093A503DF91CF911F910F91FF902C
:101B2000EF90DF90CF90BF90AF909F908F907F907D
:101B30006F9008959093B9038093B8030895DF924E
:101B4000EF92FF920F931F93CF93DF938C01EB01E2
:101B5000209709F056C080919103893079F48091E3
:101B6000740090917500892BF9F40E949D068823DA
:101B700029F062E973E0C8010E941A0C8091910378
:101B8000813091F40E949D06882371F062E973E030
:101B9000C8010E941A0C8091910388608093910380
:101BA00010927500109274008091740090917500ED
:101BB000019690937500809374008091AC038130FE
:101BC00009F0A8C10E949D06882309F4A6C182E0FD
:101BD0008093AC03609176006F5F609376004091D4
:101BE000AA035091AB036F718091B70320E2829FEB
:101BF000C0011124682BC8010E94900CE12CF12C2B
:101C0000C0C10E949208882371F1D80155968C9129
:101C1000813019F4C8010E944E098091910383FF1D
:101C20007FC1F8018589823009F07DC144E050E030
:101C300062E973E0C8014C960E942310892B09F0D9
:101C400075C1A8014A5E5F4FE091C403F091C503DE
:101C50006091900382E993E0099582E0809391037B
:101C6000E12CF12C8EC1BE01C8010E94B808882366
:101C700009F45FC1D80157968C9157978130A9F428
:101C800092968C91883009F057C1E091B803F09199
:101C9000B903309719F0C8014A960995BE01C801E9
:101CA0000E948509E12CF12C6CC1C633D10508F4E2
:101CB00046C1863009F046C1F80184A18B3009F095
:101CC000F0C0109397030093960363EB73E0C80191
:101CD0000E947B08882309F438C1D8019F96DC90C4
:101CE0009F97D2FE17C0E091A803F091A903309707
:101CF00059F095968C9120E030E040E050E063E0B0
:101D0000829586958770099586E08093AC03E12CD7
:101D1000F12C37C1C8010E94A2097C018091AC035B
:101D20008230D9F59D2D90718D2D8271823119F5FA
:101D300040E060E070E0C8010E94B60A88E1F80166
:101D400087A7E091A603F091A703309741F0D8014F
:101D500093968C91829586958770099502C080E054
:101D600090E023E02093AC03BC01C8010E94F30A79
:101D7000E12CF12C06C181E08093AC03911104C0E9
:101D8000B7016F5F7F4F02C060E070E044E0C801C0
:101D90000E94B60AE12CF12CF4C0833009F03FC058
:101DA000E114F10409F4E6C084E08093AC03E0910F
:101DB000A803F091A903309709F456C0D8019E9664
:101DC0004C9142954F70B4E04B9FA0011124CE017D
:101DD00008974E5D5F4F8417950708F4AC01C70163
:101DE000840F951FC817D90720F49E01241B350BBB
:101DF00001C09701D80195968C9160E082958695F7
:101E000087700995882359F049E0B701C8010E94FD
:101E1000B60A85E08093AC03E12CF12CB2C080912E
:101E2000AC03853051F4F80187A584FF91C086E0AA
:101E30008093AC03E12CF12CA4C08630A9F4D80126
:101E40009F968C9184FD04C0B7016F5F7F4F02C0E5
:101E500060E070E044E0C8010E94B60A87E0809329
:101E6000AC03E12CF12C8DC0F80187A580FF0DC0DB
:101E7000B7016F5F7F4F41E0C8010E94B60A85E05D
:101E80008093AC03E12CF12C7CC0E114F10409F443
:101E900062C040E0B701C8010E94B60AE12CF12CF3
:101EA00070C090918F03891359C095A180917300E0
:101EB000981357C0D7A4D1FE06C0C8010E94300BAA
:101EC000E12CF12C5EC0D4FE4FC0C8010E94A209D3
:101ED0007C0190938E0380938D03892B49F4D0FE6F
:101EE00050C040E060E070E0C8010E94B60A49C0FE
:101EF000F801E6A4E694E694E694E694F4E0EF9E16
:101F00007001112422E2E20EF11C2897CE15DF05A4
:101F100070F137C0E12CF12C34C0E12CF12C31C030
:101F2000E12CF12C2EC0E12CF12C2BC0E12CF12C5A
:101F300028C0E12CF12C25C0E12CF12C22C0E12C91
:101F4000F12C1FC0E12CF12C1CC0E12CF12C19C08C
:101F5000E12CF12C16C0E12CF12C13C0E12CF12C5A
:101F600010C0E12CF12C0DC0E12CF12C0AC0E12CA9
:101F7000F12C07C0D8019F968C9180FD79CFE12C80
:101F8000F12CC701DF91CF911F910F91FF90EF903E
:101F9000DF9008958F929F92AF92BF92CF92DF927F
:101FA000EF92FF920F931F93CF93DF937C01D22F79
:101FB000442359F16B014150842F90E001965B015D
:101FC000A80EB91EC0E0802E912C87010C0F111DA8
:101FD000F60181916F01A401B80190E00E943E10CA
:101FE000F8018081882341F0CF5F87010C0F111D1C
:101FF000F80180818111F8CFDD2319F0F801D08339
:10200000CF5FCA14DB0409F701C0C0E0C150F7017B
:10201000EC0FF11D1082DF91CF911F910F91FF9076
:10202000EF90DF90CF90BF90AF909F908F900895EA
:1020300099278827089591110C941810803211F077
:102040008930D1F70895FB01DC0104C08D91019026
:10205000801921F441505040C8F7881B990B08950E
:10206000FB01DC014150504030F08D91019080190E
:1020700019F40020B9F7881B990B089545325105D2
:1020800020F4423010F00C944910FB011082CB0177
:102090000895BB274A3031F4992322F4BDE290958C
:1020A00081959F4F0C945510BB27FB015527AA27FC
:1020B000880F991FAA1FA41710F0A41B83955051D5
:1020C000B9F7A05DAA3308F0A95DA193009779F74D
:1020D000B111B1931192CB010C946E10DC01FC0193
:1020E000672F71917723E1F7329704C07C916D934C
:1020F00070836291AE17BF07C8F30895F894FFCFBD
:10210000C0A80101C0A8011D545558100029080895
:10211000080802500100010A6C656E6B6572616E01
:10212000697374656B2E636F6D0047455420002FF3
:102130002000706173733D377336643700616464E7
:10214000726573733D300076616C75653D3000617A
:102150006464726573733D310061646472657373A6
:0E2160003D3200616464726573733D330000AC
:00000001FF
