:100000000C9468010C9485010C9485010C94850175
:100010000C9485010C9485010C9485010C94650267
:100020000C9485010C9485010C9485010C94850138
:100030000C9485010C94BB0F0C9485010C948501E4
:100040000C9485010C9485010C9485010C94850118
:100050000C9485013C68313E323030204F4B3C2FB0
:1000600068313E002F66726F6D6465766963652F37
:1000700067657469702E7068703F706173733D3787
:10008000733664372664693D3046302D3030302D6C
:100090004630462D3030302D304630266F72647039
:1000A0003D713739747933386A636C6435796762C6
:1000B00068676B6C37396C006C656E6B6572616E6E
:1000C000697374656B2E636F6D000A3C2F707265E7
:1000D0003E3C62723E3C68723E000A436C69656E4B
:1000E000742073746172743A20000A4E756D6265F3
:1000F00072207375636365737366756C20646174D5
:10010000612075706C6F61647320746F2077656215
:100110003A20004E756D626572206F6620646174CE
:10012000612075706C6F61647320737461727465A3
:10013000642062792070696E673A20002028303D83
:100140006E6F206572726F72290A004572726F724B
:1001500020636F64653A200077616974696E672077
:10016000666F7220444E5320616E737765722E0A5B
:100170000020746F20616E73776572206172702E3B
:100180000A0077616974696E6720666F722047574D
:1001900020003C68323E77656220636C69656E744E
:1001A000207374617475733C2F68323E0A3C707220
:1001B000653E0A00485454502F312E3020323030E2
:1001C000204F4B0D0A436F6E74656E742D54797019
:1001D000653A20746578742F68746D6C0D0A5072DE
:1001E00061676D613A206E6F2D63616368650D0A0A
:1001F0000D0A000D0A436F6E74656E742D5479708C
:10020000653A206170706C69636174696F6E2F78F4
:100210002D7777772D666F726D2D75726C656E63B5
:100220006F6465640D0A0D0A00436F6E74656E7429
:100230002D4C656E6774683A20000D0A557365721F
:100240002D4167656E743A207467722F312E310D1F
:100250000A4163636570743A202A2F2A0D0A000D43
:100260000A0020485454502F312E310D0A486F7324
:10027000743A2000504F535420000D0A5573657294
:100280002D4167656E743A207467722F312E310DDF
:100290000A4163636570743A20746578742F6874DA
:1002A0006D6C0D0A0D0A0020485454502F312E3128
:1002B0000D0A486F73743A2000474554200000012E
:1002C00008000604000145000082000040002000F4
:1002D00011241FBECFE5D8E0DEBFCDBF10E0A0E601
:1002E000B0E0EAE3F1E202C005900D92A43AB10752
:1002F000D9F724E0A4EAB0E001C01D92AD35B20701
:10030000E1F70E9481020C949B100C940000089568
:10031000883C910529F48091AB008F5F8093AB00FE
:100320000895613051F4FA01A2E5B3E04A5F5F4FEE
:1003300081918D93E417F507D9F7089544EB51E0C7
:1003400060E070E08EEA90E00E945D090895CF922F
:10035000DF92EF92FF920F931F93CF93DF93CDB76E
:10036000DEB761970FB6F894DEBF0FBECDBF7C013C
:100370000E949E0142E951E0BC01C7010E945D0953
:10038000BC019091A7009130E9F442E851E0C70127
:100390000E945D096C010AE02EE244E060E670E034
:1003A000CE0101960E946D0FAE014F5F5F4FB60107
:1003B000C7010E94890941E751E0BC01C7010E94C1
:1003C0005D0974C08091A800813031F548E551E0A5
:1003D000C7010E945D098C010E94B803D82E4BE42E
:1003E00051E0B801C7010E945D098C014AE0BE01DD
:1003F0006F5F7F4F8D2D90E00E945E10AE014F5FCA
:100400005F4FB801C7010E9489094CE351E0BC016C
:10041000C7010E945D094AC043E151E0C7010E9443
:100420005D098C018091AC004AE0BE016F5F7F4F97
:1004300090E00E945E10AE014F5F5F4FB801C701B0
:100440000E9489094AEE50E0BC01C7010E945D0983
:100450008C018091AB004AE0BE016F5F7F4F90E05E
:100460000E945E10AE014F5F5F4FB801C7010E944E
:1004700089094AED50E0BC01C7010E945D098C0169
:100480008091AD004AE0BE016F5F7F4F90E00E9417
:100490005E10AE014F5F5F4FB801C7010E9489092E
:1004A0004AEC50E0BC01C7010E945D0961960FB69D
:1004B000F894DEBF0FBECDBFDF91CF911F910F919A
:1004C000FF90EF90DF90CF9008951F920F920FB69C
:1004D0000F9211248F938091A9008F5F8093A900C0
:1004E0008091A900833338F01092A9008091AA006E
:1004F0008F5F8093AA008F910F900FBE0F901F9077
:1005000018958FEF8ABBC0E08C2F8A95F1F788E6AB
:1005100090E00E949B0582E00E949505CA95F1F744
:10052000789466E774E084E10E947805B99A64E6FD
:1005300070E088E690E00E94B90A80E590E00E94B1
:10054000CE0A87E891E00E943D0D81E08093AD00E6
:10055000CC24C394D12C6894AA24A1F8BB24B394CE
:100560006EEA70E08AE892E00E949006EC01BC011D
:100570008EEA90E00E94420D8C01209709F089C01C
:100580008091A700811109C041E951E06B2D80E6FF
:1005900090E00E94200CB092A7000E94190C8111DB
:1005A0000BC08091A700813039F4A092A700809100
:1005B000A800882349F019C08091A800811115C0B6
:1005C0008091A700823009F50E944006882341F2FD
:1005D0001092AA00B092A80042E553E068E770E0EC
:1005E0008EEA90E00E94C603BBCF813051F40E9496
:1005F000B503882331F0A092A8008EE493E00E9416
:10060000BB038091A800823041F08091AA00823023
:1006100008F4A6CF1092A800A3CF8091AD0081303E
:10062000D9F41092AA00A092AD008091AC008F5F27
:100630008093AC000F2EF2E5EF2EF3E0FF2EF02DAD
:100640000EE413E028E831E048EB50E069E373E0A2
:1006500084E690E00E94F90C1BBADD98D89A2FE747
:1006600088E391E0215080409040E1F700C0000015
:1006700089B38093A500D99A2FE788E391E02150B0
:1006800080409040E1F700C0000089B38093A4004F
:1006900067CF009731F4BE018EEA90E00E944B04D0
:1006A0005FCF44E050E0BC0162557F4F8AE890E0A4
:1006B0000E944510892B59F00E949E0144E550E0AC
:1006C000BC018EEA90E00E945D098C0148C042E0C6
:1006D00050E0B8016E547F4F8FE890E00E944510C3
:1006E000892B41F40E949E018EEA90E00E94A701AE
:1006F0008C0135C048E050E0B80162547F4F82E978
:1007000090E00E944510892B51F5C8018A539F4FF4
:100710000E940F10C82F8093A600803400F547E098
:1007200050E0B80167537F4F8BE990E00E9445107D
:10073000892B51F42BB3C60102C0880F991FCA95AB
:10074000E2F7822B8BBB0BC09BB3960102C0220F3A
:10075000331FCA95E2F7822F809589238BBBB8019E
:100760008EEA90E00E940C0BFBCE80915D03089511
:10077000809158030895E9E5F3E0DC012DE533E0CD
:1007800081918D93E217F307D9F70895EF92FF92C5
:100790000F931F93CF93DF93EC017B018A0110929B
:1007A0005D030E944006811105C084E080935803D8
:1007B00081E06AC01092580360915E036F5F60939E
:1007C0005E0370E0706E25E330E04EE650E0CE014F
:1007D0000E94320B80915E038BA781E08CA7FE0103
:1007E000BD96CE01C6961192E817F907E1F781E0B0
:1007F0008FA7F70190819923C9F02CE06DE030E0DC
:100800009E3241F4DE01A20FB11D81509A968C9365
:10081000262F832F9191DE01A60FB11D9A969C93EE
:100820008F5F6F5F90819111EBCF03C081E02CE06F
:100830006DE0FE01E20FF11D815082A7FE01E60F7F
:10084000F11D12A681E0860FFE01E80FF11D12A630
:1008500082E0860FFE01E80FF11D81E082A793E0A0
:10086000960FFE01E90FF11D12A694E0960FFE010E
:10087000E90FF11D82A789EF860F8AA76B5F70E0F1
:10088000CE010E94980B80E0DF91CF911F910F91D4
:10089000FF90EF900895FC016634710508F471C073
:1008A00083A1853309F06FC084A1803E09F06DC03B
:1008B00085A190915E0389136AC093A5891369C0CD
:1008C00085A58F78803829F081E08093580380E0F7
:1008D000089592A5945F61537109DF01A90FB11DBD
:1008E0009A968C91807C61F09E5F0FC09F5FDF01C4
:1008F000A90FB11D9A968C91811102C09F5F05C00E
:10090000292F30E02617370788F3292F30E0DF0141
:10091000A20FB31F9B968C91813099F088E0890FCC
:10092000DF01A80FB11D9B968C91965F980F292F20
:1009300030E02617370788F283E08093580380E081
:100940000895DF01A20FB31FD3962C91243029F014
:1009500082E08093580380E008952AE0290F30E078
:10096000265D3F4FE20FF31FA9E5B3E02DE533E02D
:1009700091919D93A217B307D9F791E090935D03EE
:10098000089580E0089580E0089580E0089580E073
:10099000089580E00895C298962F6F71862B8FB9C5
:1009A000779BFECF1FB8779BFECF99231CF41FB80F
:1009B000779BFECFC29A8FB10895C2986F71862B34
:1009C0008FB9779BFECF4FB9779BFECFC29A089520
:1009D000FB01C2982AE32FB9779BFECF009761F005
:1009E000DF01A80FB91F1FB8779BFECF9FB191936E
:1009F000EA17FB07C1F701C0DF011C92C29A0895F4
:100A0000FB01C2982AE72FB9779BFECF08C09F0150
:100A1000280F391F91919FB9779BFECF03C0009794
:100A2000B1F703C0E217F307A9F7C29A08951F931D
:100A3000CF93DF93182F1076C12FD0E02091610360
:100A400030E0C217D307B1F043E06FE180EA0E94C3
:100A5000DD04AE01559547955595479555954795B4
:100A600055954795559547956FE180E80E94DD04BF
:100A700010936103DF91CF911F910895CF93C82FF9
:100A80000E9417056C2F80E00E94CB04CF9108953F
:100A9000CF93DF93C82FD62F0E9417054D2F6C2FB1
:100AA00080E40E94DD04DF91CF910895CF93682FF9
:100AB00084ED0E94480561E082ED0E9448058AEEBF
:100AC0000E943E0580FDFBCF60E082ED0E9448055C
:100AD00089ED0E943E05C82F88ED0E943E052C2F0F
:100AE00030E0322F2227A901482BCA01CF91089567
:100AF000CF93DF93D62FC72F682F84ED0E94480530
:100B00006D2F86ED0E9448056C2F87ED0E944805E9
:100B1000C8E203C08C2F8A95F1F78AEE0E943E0549
:100B200080FDF8CFDF91CF910895682F677085E73A
:100B30000E9448050895CF93DF93EC01BA9AC29AB8
:100B400087B3806A87BBBE98C598C79880E58DB982
:100B5000709A4FEF60E08FEF0E94DD0480E090E03C
:100B60000197F1F71092600310925F0360E088E054
:100B70000E94480560E089E00E94480560E08CE042
:100B80000E94480560E08DE00E9448056FEF8AE012
:100B90000E94480569E18BE00E94480560E084E01E
:100BA0000E9448056AE185E00E9448056FEF86E0F3
:100BB0000E9448056FE187E00E94480560EB88E3EA
:100BC0000E9448056FE388E20E94480560E389E2DD
:100BD0000E94480569EF80E30E94480567EF81E3C2
:100BE0000E9448056DE080EC0E94480560E081ECC1
:100BF0000E94480542E362EC80E80E94DD0462E165
:100C000086EC0E9448056CE087EC0E94480562E192
:100C100084EC0E9448056CED8AEC0E94480565E072
:100C20008BEC0E944805688184EE0E94480569812A
:100C300085EE0E9448056A8182EE0E9448056B811C
:100C400083EE0E9448056C8180EE0E9448056D810C
:100C500081EE0E94480560E071E080E10E94780525
:100C60008FE10E94170540EC6BE180E80E94DD04F3
:100C700044E06FE180E80E94DD04DF91CF910895A8
:100C800081E10E94560592FB882780F908950F9311
:100C90001F93CF93DF93EC018B016FE180E00E9403
:100CA000CB0483FDFACF8CE10E943E0581FF13C087
:100CB00040E86FE180E80E94DD0440E86FE180EAEF
:100CC0000E94DD0442E06CE180EA0E94DD0480E3E2
:100CD00095E70197F1F760E082E00E9448056AE13C
:100CE00083E00E9448056C2F86E00E944805CE01F3
:100CF000965E692F87E00E94480540E060E08AE741
:100D00000E94DD04B801CE010E94000548E06FE1B9
:100D100080E80E94DD04DF91CF911F910F9108952B
:100D2000AF92BF92CF92DF92EF92FF920F931F93F9
:100D3000CF93DF936C017B0189E30E943E058823FA
:100D400009F464C060915F03C091600380E00E9479
:100D500048056C2F81E00E94480560E08AE30E940C
:100D6000CB04C82F60E08AE30E94CB04D0E0D82BEC
:100D7000D0936003C0935F0360E08AE30E94CB04DA
:100D8000B82E60E08AE30E94CB04A82E60E08AE3DC
:100D90000E94CB04082F60E08AE30E94CB0407FF87
:100DA00011C081E0C81AD1080B2D10E01A29045097
:100DB0001109C016D10608F48601B701C8010E94C6
:100DC000E80402C000E010E07E0181E0E81AF108CA
:100DD000E1148AE1F8064CF06FEF8CE00E944805C0
:100DE00069E18DE00E94480509C06C2F61508CE0DC
:100DF0000E9448056F2D8DE00E94480540E46EE199
:100E000080E80E94DD04802F912F02C080E090E0F6
:100E1000DF91CF911F910F91FF90EF90DF90CF90D6
:100E2000BF90AF900895CF92DF92EF92FF920F9311
:100E30001F93CF93DF93EA01890190917A03891779
:100E400061F0E0917703F091780340E050E060E0DA
:100E500070E084EF91E009955EC061115CC02D30B7
:100E6000310508F458C0E0907703F0907803E1145E
:100E7000F10409F450C0C0906B03D0906C03F601EC
:100E8000E40FF51F808590E00E943010892BB9F1A6
:100E9000F601EC0FFD1F218530E0205331092A3087
:100EA000310580F5F601EC0FFD1F838590E0AC0164
:100EB000405351094A30510540F5C901880F991F27
:100EC000220F331F220F331F220F331F280F391F0A
:100ED000F601EC0FFD1F828590E0C097280F391FA7
:100EE000C901880F991F220F331F220F331F220FB2
:100EF000331F280F391FCA01820F931F08C080E0DB
:100F000090E005C080E090E002C080E090E0A801A1
:100F1000BE01F701099580E0DF91CF911F910F91FC
:100F2000FF90EF90DF90CF900895CF92DF92EF92F5
:100F3000FF920F931F93CF93DF938C01DB0141301E
:100F400061F46B0188E0C81AD108E12CF12CE1E1D1
:100F5000CE0ED11CE11CF11C11C0423061F46B01BA
:100F6000F8E0CF1AD108E12CF12C86E0C80ED11C94
:100F7000E11CF11C03C0C12CD12C7601A230B105BB
:100F800008F1F80131969D01EF012197488150E069
:100F900060E070E0762F652F542F44278081482B26
:100FA000C40ED51EE61EF71E22503109329622309D
:100FB000310550F7CD0102978E7F0296080F191F59
:100FC000A170BB27AB2B69F0F801808190E0A0E015
:100FD000B0E0BA2FA92F982F8827C80ED91EEA1E75
:100FE000FB1EA7016627772741155105610571058D
:100FF00071F0EE24FF24C40ED51EE61EF71EA701D5
:1010000066277727411551056105710591F7C601DE
:1010100080959095DF91CF911F910F91FF90EF9068
:10102000DF90CF900895009741F026E0FC01A3E9FE
:10103000B3E001900D922A95E1F70895FC01328DFD
:10104000FB01208132130DC0DC015B9631964E9678
:101050003D912191321307C0A817B907C9F781E064
:10106000089580E0089580E0089569327105C8F020
:10107000FC0124852830B9F425852630B1F436A149
:1010800020918F03321313C0B796A0E9B3E08A967C
:1010900031912D9132130DC0E817F907C9F781E09E
:1010A000089580E0089580E0089580E0089580E04C
:1010B000089580E00895CF93DF93FC016A327105B3
:1010C000E0F084858830D9F4858581111AC0968531
:1010D0009534C1F4268D90918F03291313C0DF013D
:1010E0005F96C0E9D3E0B2962D91999129130AC079
:1010F000AE17BF07C9F781E005C080E003C080E0FC
:1011000001C080E0DF91CF910895CF93DF93FC0180
:10111000C3E9D3E09C012A5F3F4FD9018C918193B1
:1011200089918D93E217F307C9F7DF91CF91089565
:10113000CF93DF93EC01188E198E80E48C8B1D8A7F
:101140008E8B40E064E170E0CE010E960E94950720
:10115000988F898FDF91CF910895CF93DF939C0172
:10116000DC015E96CFE8D3E0FC017A96AC014E5DDF
:101170005F4F90819D9399919193A417B507C9F7FB
:10118000C9010E949808DF91CF9108959C01265DC6
:101190003F4FFC01BE96D9018E91680F711D82915F
:1011A0006083442311F08C9301C01C92672F772732
:1011B0002E173F0789F70895CF93DF93EC018CA199
:1011C0009AA19CA38AA38DA19BA19DA38BA3CE01D1
:1011D0000E94C6081AAA1BAA80E58EA7DF91CF91AC
:1011E00008950F931F93CF93DF938C010E9485087E
:1011F000E8011C8A82E08D8BD801909623E933E0C8
:10120000F8017696A8014A5D5F4F80818D93E901D0
:1012100089919E018193A417B507B9F7AFE8B3E0B0
:10122000F8017C969801265D3F4F8081EA01899301
:10123000AE018D918193C217D307B9F7B8018AE245
:1012400090E00E944706DF91CF911F910F91089582
:101250000F931F93CF93DF93EC018B010E948508BE
:10126000CE010E94AD081AA29CA1983F18F02DA1B2
:101270002F5F2DA3985F9CA3BE01C8010E94470663
:10128000DF91CF911F910F910895FC01208930E0EB
:10129000322F22278189282B2451310986A5829556
:1012A0008F70A90164E0869F401951091124CA0179
:1012B000992314F480E090E008959A012F5F3F4F46
:1012C000FA014491442369F0FB01F696DC01AE0F6C
:1012D000BF1FF9014D936F5F7F4F449131964111CC
:1012E000F9CFCB010895222391F0A42FB52FAB01A4
:1012F0004A5C5F4FFC01E40FF51F922F3D91319343
:101300009150E1F72150620F711D6F5F7F4FCB014C
:101310000895FA0101900020E9F731979F01241BFD
:10132000350B0E9473090895EF92FF920F931F935C
:10133000CF93DF9300D000D01F92CDB7DEB790914E
:101340007A038913A8C080917903811130C000917C
:101350006B0310916C0349EB52E060E070E0C80150
:101360000E945D094091710350917203BC01C80154
:101370000E945D0940916F0350917003BC01C80148
:101380000E94890947EA52E0BC01C8010E945D0938
:1013900040916D0350916E03BC01C8010E945D092C
:1013A0004AE752E0BC01C8010E945D0976C0009185
:1013B0006B0310916C0344E752E060E070E0C801F9
:1013C0000E945D094091710350917203BC01C801F4
:1013D0000E945D0940916F0350917003BC01C801E8
:1013E0000E94890942E652E0BC01C8010E945D09E1
:1013F00040916D0350916E03BC01C8010E945D09CC
:10140000E0907503F0907603E114F10459F04FE594
:1014100052E0BC01C8010E945D09A701BC01C801DE
:101420000E945D094AE352E0BC01C8010E945D09C7
:1014300049E252E0BC01C8010E945D097C01A09113
:101440007303B0917403FD0101900020E9F7319717
:101450004AE0BE016F5F7F4FCF018A1B9B0B0E944A
:101460005E1000916B0310916C03AE014F5F5F4FF4
:10147000B701C8010E94890943EF51E0BC01C801CE
:101480000E945D094091730350917403BC01C8012F
:101490000E94890902C080E090E00F900F900F90A9
:1014A0000F900F90DF91CF911F910F91FF90EF90D0
:1014B0000895FF920F931F93CF93DF93EC018B015D
:1014C000F42E0E9485088F2D80618FA784E0F8128A
:1014D00006C041E0B801CE010E94DC080AC0011537
:1014E000110511F401E010E041E0B801CE010E94C5
:1014F000DC08188A88E2898BCE010E94AD0884E05E
:1015000088AB19AA42E06CE170E0CE014A960E94D5
:1015100095079AAB8BABBE0186E390E00E9447062D
:10152000DF91CF911F910F91FF9008950F931F931B
:10153000CF93DF93EC018B01CB018896988B898B3D
:10154000CE010E9498081AAA1BAAB801645E7F4FB8
:1015500042E0CE014A960E9495079AAB8BABBE0142
:10156000C801C6960E944706DF91CF911F910F9147
:1015700008959C016115710551F0FB01AFE8B3E0DE
:101580006C5F7F4F91919D93E617F707D9F721156F
:10159000310519F0C9010E9413080895909364035E
:1015A000809373000895CF93DF93EC010E94850828
:1015B000188A8CE2898BCE010E94AD0882E18FA748
:1015C00040E061E070E0CE010E94DC081EA21FA294
:1015D0008091770088A719A68D5F8093770082E0BD
:1015E0008EAB84E08FAB85E088AF19AE80E68EA726
:1015F0008AE088AB19AA42E060E270E0CE014A9628
:101600000E9495079AAB8BABBE018AE390E00E94E3
:101610004706DF91CF9108950F931F93CF93DF93E8
:10162000EC018B01609162037091630340E00E94C2
:10163000590A89E18FA7B801CE010E94960ADF916D
:10164000CF911F910F910895DC01FA016115710589
:1016500041F0680F791F84918D933196A617B707D3
:10166000D1F70895AF92BF92CF92DF92EF92FF929F
:101670000F931F93CF93DF93EC01D62EC72E7A01E1
:10168000B22EA32EF801AC0183E993E08E010A5F2C
:101690001F4FBF016A5F7F4F2191DA012D93AD018A
:1016A000DC012D91CD01D8012D938D01E617F707AF
:1016B00099F788E08C871D8646EC52E069E070E07F
:1016C000CE010E960E94240B809172008B8B8F5F4F
:1016D00080937200188A81E18F8BF7019E01225E50
:1016E0003F4F8FE893E0BE01665E7F4FB4E0EB0EA4
:1016F000F11C4191D9014D939D01DC014D91CD012A
:10170000DB014D93BD01EE15FF0599F7ACA2BDA21B
:10171000CAA2DBA21EA218A619A6DF91CF911F9123
:101720000F91FF90EF90DF90CF90BF90AF90089512
:101730000F931F93CF93DF93EC018B01CB014C965A
:10174000898B988BCE010E949808C80108968FA3B8
:101750009EA3B801605F7F4F41E0CE014A960E9490
:10176000950789A798A7BE01C8018A960E944706D7
:10177000DF91CF911F910F910895CF92DF92EF9259
:10178000FF920F931F93CF93DF936C0180918F0390
:10179000882309F445C0F60103E913E096012A5FA6
:1017A0003F4FE901D8014FEF41939D919993E21783
:1017B000F307D1F77B0188E0E6018C8786E08D870F
:1017C0004EEB52E068E070E0C6010E960E94240BDA
:1017D000C6014696F601B096D6019696E801299183
:1017E0008E01EC012993CE011192EA17FB07B1F7A4
:1017F000F7012FE833E0C6014C96D4E0ED0EF11C62
:1018000041914D93E90149919E01EC014993CE012B
:10181000EE15FF05A9F7B6018AE290E00E9447069F
:10182000DF91CF911F910F91FF90EF90DF90CF90BC
:10183000089581E090916603923009F480E0089564
:1018400050935C0440935B0421E020936603609313
:101850006503FC01A7E6B3E0049621912D93E817F8
:10186000F907D9F70895AF92BF92DF92EF92FF92F6
:101870000F931F93CF93DF93EC01F62EE42ED52E1A
:10188000E2E8F3E09C0183E993E05E0146E0A40E08
:10189000B11C08E813E04191D9014D939D01DC0191
:1018A0007D91CD01D5017D935D01E017F10799F799
:1018B00088E08C871D8646EC52E069E070E0CE013E
:1018C0000E960E94240B8CE2898B809172008B8B88
:1018D0008F5F8093720086E08F8BE8E8F3E09E01D3
:1018E000225E3F4F8FE893E08E01065E1F4F580146
:1018F0006CE873E04191D9014D939D01DC014D915C
:10190000CD01D5014D935D01E617F70799F7CE019B
:101910000E949808DCA2EDA28BE08AA3FBA2FE0144
:10192000B696CE018E961192E817F907E1F78091ED
:10193000770088A78D5F8093770080E68EA782E08E
:101940008FA793E098AB19AA1AAA1BAA1CAA1DAAD2
:101950008EAB94E09FAB88AF8EEE89AF42E060E241
:1019600070E0C8010E9495079AAB8BABBE018AE379
:1019700090E00E944706DF91CF911F910F91FF9059
:10198000EF90DF90BF90AF9008950F931F939093C7
:101990007E0380937D0370937C0360937B03F90146
:1019A000A8E8B3E02C5F3F4F81918D93E217F307D6
:1019B000D9F7F801A2E8B3E00A5F1F4F81918D9338
:1019C000E017F107D9F75093800340937F0381E03C
:1019D0008093810380918C038F5F883018F480930B
:1019E0008C0302C010928C0380918C031F910F9185
:1019F00008956F927F928F929F92AF92BF92CF92F3
:101A0000DF92EF92FF920F931F93CF93DF934C01DE
:101A10005B016A013901E8010E9440068823F1F068
:101A20009092720380927103B0927003A0926F0340
:101A3000D0926E03C0926D03109279037092780376
:101A40006092770387019E0140E550E064E979E008
:101A500083E197E00E94C50C80937A03DF91CF91D8
:101A60001F910F91FF90EF90DF90CF90BF90AF90BC
:101A70009F908F907F906F90089590938E038093A6
:101A80008D030895DF92EF92FF920F931F93CF93F0
:101A9000DF938C01EB01209709F056C0809166031B
:101AA000893079F48091740090917500892BF9F454
:101AB0000E944006882329F067E673E0C8010E946F
:101AC000BD0B80916603813091F40E94400688230B
:101AD00071F067E673E0C8010E94BD0B8091660358
:101AE0008860809366031092750010927400809154
:101AF0007400909175000196909375008093740026
:101B000080918103813009F0A8C10E94400688239A
:101B100009F4A6C182E080938103609176006F5F33
:101B20006093760040917F03509180036F718091A4
:101B30008C0320E2829FC0011124682BC8010E94FF
:101B4000330CE12CF12CC0C10E943508882371F1BF
:101B5000D80155968C91813019F4C8010E94F10882
:101B60008091660383FF7FC1F8018589823009F087
:101B70007DC144E050E067E673E0C8014C960E94E6
:101B80003810892B09F075C1A8014A5E5F4FE091BA
:101B90005B04F0915C046091650387E693E009952E
:101BA00082E080936603E12CF12C8EC1BE01C80156
:101BB0000E945B08882309F45FC1D80157968C9175
:101BC00057978130A9F492968C91883009F057C1CB
:101BD000E0918D03F0918E03309719F0C8014A9679
:101BE0000995BE01C8010E942809E12CF12C6CC1A5
:101BF000C633D10508F446C1863009F046C1F80164
:101C000084A18B3009F0F0C010936C0300936B0338
:101C100068E873E0C8010E941E08882309F438C1EF
:101C2000D8019F96DC909F97D2FE17C0E0917D036C
:101C3000F0917E03309759F095968C9120E030E03A
:101C400040E050E063E0829586958770099586E0D4
:101C500080938103E12CF12C37C1C8010E94450912
:101C60007C01809181038230D9F59D2D90718D2D5D
:101C70008271823119F540E060E070E0C8010E9495
:101C8000590A88E1F80187A7E0917B03F0917C0372
:101C9000309741F0D80193968C9182958695877004
:101CA000099502C080E090E023E020938103BC010D
:101CB000C8010E94960AE12CF12C06C181E08093B4
:101CC0008103911104C0B7016F5F7F4F02C060E0D4
:101CD00070E044E0C8010E94590AE12CF12CF4C0E4
:101CE000833009F03FC0E114F10409F4E6C084E058
:101CF00080938103E0917D03F0917E03309709F496
:101D000056C0D8019E964C9142954F70B4E04B9FBF
:101D1000A0011124CE0108974E5D5F4F84179507EF
:101D200008F4AC01C701840F951FC817D90720F428
:101D30009E01241B350B01C09701D80195968C910B
:101D400060E08295869587700995882359F049E06F
:101D5000B701C8010E94590A85E080938103E12CF4
:101D6000F12CB2C080918103853051F4F80187A530
:101D700084FF91C086E080938103E12CF12CA4C004
:101D80008630A9F4D8019F968C9184FD04C0B701D8
:101D90006F5F7F4F02C060E070E044E0C8010E94C6
:101DA000590A87E080938103E12CF12C8DC0F80162
:101DB00087A580FF0DC0B7016F5F7F4F41E0C8016D
:101DC0000E94590A85E080938103E12CF12C7CC0AC
:101DD000E114F10409F462C040E0B701C8010E94B7
:101DE000590AE12CF12C70C090916403891359C0F9
:101DF00095A180917300981357C0D7A4D1FE06C057
:101E0000C8010E94D30AE12CF12C5EC0D4FE4FC061
:101E1000C8010E9445097C0190936303809362038B
:101E2000892B49F4D0FE50C040E060E070E0C8016A
:101E30000E94590A49C0F801E6A4E694E694E694A3
:101E4000E694F4E0EF9E7001112422E2E20EF11C10
:101E50002897CE15DF0570F137C0E12CF12C34C086
:101E6000E12CF12C31C0E12CF12C2EC0E12CF12C15
:101E70002BC0E12CF12C28C0E12CF12C25C0E12C49
:101E8000F12C22C0E12CF12C1FC0E12CF12C1CC044
:101E9000E12CF12C19C0E12CF12C16C0E12CF12C15
:101EA00013C0E12CF12C10C0E12CF12C0DC0E12C61
:101EB000F12C0AC0E12CF12C07C0D8019F968C911F
:101EC00080FD79CFE12CF12CC701DF91CF911F91DB
:101ED0000F91FF90EF90DF9008958F929F92AF92B5
:101EE000BF92CF92DF92EF92FF920F931F93CF9307
:101EF000DF937C01D22F442359F16B014150842F91
:101F000090E001965B01A80EB91EC0E0802E912CD6
:101F100087010C0F111DF60181916F01A401B80119
:101F200090E00E945310F8018081882341F0CF5F38
:101F300087010C0F111DF80180818111F8CFDD237D
:101F400019F0F801D083CF5FCA14DB0409F701C090
:101F5000C0E0C150F701EC0FF11D1082DF91CF916D
:101F60001F910F91FF90EF90DF90CF90BF90AF90B7
:101F70009F908F9008951F920F920FB60F92112489
:101F80002F933F934F938F939F93EF93FF934CB176
:101F900080919A038F3321F480919903882371F003
:101FA00080919A0320919903082E000C990B0196B9
:101FB000022E000C330B8217930759F4809199037A
:101FC0008F5F8093990380919903803411F410926C
:101FD000990380919A038F3319F410929A0305C0E4
:101FE00080919A038F5F80939A03E0919A030E2E5B
:101FF000000CFF0BE556FC4F4083809199038F3F07
:1020000011F410929903FF91EF919F918F914F914D
:102010003F912F910F900FBE0F901F901895FC01CC
:1020200088279927E89421912032E9F3293010F08C
:102030002E30C8F32B3241F02D3239F4689404C0AD
:102040000E946910820F911D219120532A30C0F304
:102050001EF4909581959F4F08959927882708959C
:1020600091110C942D10803211F08930D1F7089520
:10207000FB01DC0104C08D910190801921F44150D5
:102080005040C8F7881B990B0895FB01DC014150B3
:10209000504030F08D910190801919F40020B9F76B
:1020A000881B990B08954532510520F4423010F0F9
:1020B0000C945E10FB011082CB010895BB274A30BF
:1020C00031F4992322F4BDE2909581959F4F0C94B1
:1020D00072107AE0979F902D879F802D910D11248B
:1020E0000895BB27FB015527AA27880F991FAA1F10
:1020F000A41710F0A41B83955051B9F7A05DAA3323
:1021000008F0A95DA193009779F7B111B1931192ED
:10211000CB010C948B10DC01FC01672F71917723AC
:10212000E1F7329704C07C916D9370836291AE1792
:0A213000BF07C8F30895F894FFCF2D
:10213A00C0A80101C0A8011D54555810002908085B
:10214A00080802500100010A6C656E6B6572616EC7
:10215A00697374656B2E636F6D0047455420002FB9
:10216A002000616464726573733D0076616C756505
:04217A003D310000F3
:00000001FF
